:03000000020DDC12
:0C0DDC00787FE4F6D8FD75811002080055
:100A7C00544849532050524F4A45435400444F4E1A
:100A8C0045204259203A0045595348494B412020B2
:100A9C002047415552415600474F56494E4441203C
:100AAC00204156494E4153480041540D0A004154CF
:100ABC002B434D47463D310D0A0041542B434D47C6
:100ACC00533D222B393139303237323732323438C8
:100ADC00220D0A0047534D20574F524B494E472089
:100AEC000041542B434D47443D310D0A0063617264
:100AFC0020206C6F636B0054726176656C6C696E50
:100B0C00672E2E2E002E2E2E54726176656C6C691B
:100B1C006E672E2E2E0020434152204953204E4FFB
:100B2C0054002020204C4F434B4544202000594F6B
:100B3C00555220434152204953204E4F54204C4F84
:100B4C00434B454420000A20506C65617365206C52
:100B5C006F636B2069740020434152204953204C31
:100B6C004F434B45440020204341522020554E53C7
:100B7C00414645202000594F5552204341522049AF
:100B8C005320554E53414645202E000A20504C45CB
:100B9C0041534520434F4D4520464153542000734B
:100BAC006F6D656F6E652073697474696E67005341
:100BBC004F4D454F4E452049532053495454494EAF
:100BCC004720494E20594F555220434152202E0068
:100BDC000A204C4541564520594F555220574F52EB
:100BEC004B20414E4420434F4D4520464153542009
:100BFC0000545259494E4720544F2053544152549B
:100C0C0000534F4D454F4E4520495320545259499E
:100C1C004E4720544F20535441525420594F555253
:100C2C00204341522E00736F6D656F6E6520737497
:100C3C00657020696E00534F4D454F4E452049530A
:0E0C4C0020494E2054484520434152202E009E
:040D2D007F027E00C3
:100D3100E4FDFCC3ED9FEC9E5019758901758CFC97
:100D4100758A66D28C308DFDC28DC28C0DBD0001BD
:030D51000C80E033
:010D5400227C
:070D55007F01120D5C7F829B
:100D5C00C292C2918FA0D2937F057E00120D31C238
:040D6C0093020D31B0
:100DA300D291C2928FA0D2937F057E00120D31C2E1
:040DB30093020D3169
:100DB7007F38120D5C7F0C120D5C7F01120D5C7F7A
:040DC70080020D5C3D
:100D7000120C5AFF6013120DA3740129F9E43AFA18
:0A0D80007F647E00120D3180E7222F
:100D8A00759850438920AC06AD077E707F80120C9F
:090D9A00A0EFF404F58DD28E22C5
:100DCB00AB077F807E25120D8A8B993099FDC299D6
:010DDB0022F5
:0D0CF5007F027E00120D317BFF7A0A79C666
:060D02008B088A09890A32
:100D0800E4F50BF50CAB08AA09A90A850C82850B3A
:100D180083120C73FF600D120DCB050CE50C70E50A
:040D2800050B80E156
:010D2C0022A4
:10080000120DB77F807E25120D8AE4F5A0C282C248
:1008100081D296C2907F81120D5C7BFF7A0A797C2F
:10082000120D707FC0120D5C7A0A7989120D707FEB
:10083000E87E03120D317F01120D5C7A0A79931262
:100840000D707FC0120D5C7A0A79A4120D707FE8DA
:100850007E03120D317A0A79B5120D02120D2D7B2D
:10086000FF7A0A79BA120D02120CF5120D2D7BFFD8
:100870007A0A79E0120D027F1A120DCB7BFF7A0AF9
:1008800079ED120D027F027E000208FF30972A7F69
:1008900001209617120D577BFF7A0A79F9120D7015
:1008A0007FC0120D5C7A0B79038009120D577BFF14
:1008B0007A0B7911120D7080D32097D030964612A2
:1008C0000D557BFF7A0B7922120D707FC0120D5CE3
:1008D0007A0B792E120D707A0A79BA120D02120C67
:1008E000F5120D2D7BFF7A0B793A120D027BFF7A00
:1008F0000B7952120D027F1A120DCB7F307E7512CA
:100900000D3102088C209684120D557BFF7A0B79ED
:1009100063120D7030960302088C2082033081F43C
:10092000D290C297120D557BFF7A0B7972120D701F
:100930007A0A79BA120D02120CF5120D2D7BFF7A8C
:100940000B7982120D027BFF7A0B7997120D027FD1
:100950001A120DCB7F287E23120D31308273D29074
:100960007F01120D5C7F80120D5C7BFF7A0B79ABEF
:10097000120D70E4F50DF50ED3E50E9401E50D941E
:100980000050917BFF7A0A79BA120D02120CF5120F
:100990000D2D7BFF7A0B79BB120D027BFF7A0B7951
:1009A000DC120D027F1A120DCB7F107E27120D3143
:1009B000E50E6401450D70030208853081030209CC
:1009C00014309703020914050EE50E70AB050D8077
:1009D000A7309745D2907F01120D5C7F80120D5C8D
:1009E0007BFF7A0B79FD120D707A0A79BA120D022B
:1009F000120CF5120D2D7BFF7A0C790D120D027B76
:100A0000FF7A0B7997120D027F1A120DCB7F107EA1
:100A100027120D31C297020914D290120D557BFF97
:100A20007A0C7932120D70E4F50DF50ED3E50E94C3
:100A300002E50D940040030209147BFF7A0A79BA9B
:100A4000120D02120CF5120D2D7BFF7A0C79421259
:100A50000D027BFF7A0B7997120D027F1A120DCBD4
:100A60007F107E27120D31E50E6402450D700302E2
:0C0A70000885050EE50E70B4050D80B081
:100C5A00BB010689828A83E0225002E722BBFE0298
:090C6A00E32289828A83E49322CB
:100C7300BB010CE58229F582E5833AF583E0225036
:100C830006E92582F8E622BBFE06E92582F8E22280
:0D0C9300E58229F582E5833AF583E493229A
:100CA000BC000BBE0029EF8DF084FFADF022E4CC38
:100CB000F875F008EF2FFFEE33FEEC33FCEE9DEC01
:100CC000984005FCEE9DFE0FD5F0E9E4CEFD22ED47
:100CD000F8F5F0EE8420D21CFEADF075F008EF2F91
:100CE000FFED33FD4007985006D5F0F222C398FD82
:050CF0000FD5F0EA221F
:00000001FF
